:040000008A11912FA1
:100F220083018A119C2FF0007008831299008316A6
:100F320098180800982F83160515831203179E012F
:100F42009F011F14F830831603138100831290014E
:100F52000B309700403095009C309600503083163D
:100F62009F00A03083129F008316981618128312D6
:100F72009817181683161815333099008312031325
:100F82001F149F14F501F6013230F4008E018F0117
:100F9200101481010B11F4080319DA2F0B1DD52F40
:100FA200F50A0319F60A0B110C1DCC2F0C11F403D0
:100FB200CC2F10101E088A1194278A111E088A113C
:100FC20094278A1176088A1194278A1175088A1142
:100FD20094278A11831201088A1194278A11831295
:100FE2001F100B30F3001C30F2006330F100F10BE4
:0E0FF200F82FF20BF82FF30BF82F6400BF2F2F
:02400E00D23F9F
:00000001FF
